:10000000C0710020DD370100BF6A0200B137010076
:10001000B1370100B1370100B13701000000000025
:100020000000000000000000000000005932010044
:10003000B13701000000000005320100B1370100B6
:1000400009330100A99002000933010009330100BE
:1000500009330100093301000933010009330100AC
:100060007190020009330100093301008F900200F2
:10007000093301000933010009330100093301008C
:10008000093301000933010009330100093301007C
:10009000093301000933010009330100093301006C
:1000A000093301000933010009330100093301005C
:1000B000093301000933010009330100093301004C
:1000C000093301000933010009330100093301003C
:1000D000093301000933010009330100093301002C
:1000E000093301000933010009330100093301001C
:1000F000093301000933010009330100093301000C
:1001000053B94AB9002908BF00281CBF4FF0FF317E
:100110004FF0FF3000F00CB8ADF1080C6DE904CEE3
:100120000BF098FCDDF804E0DDE9022304B0704731
:10013000704700BF2DE9F00791E8F807B2E8021018
:100140005B1854EB0C04B2E802104D4156EB0C0660
:10015000B2E802104F4158EB0C08B2E8021059EB1C
:1001600001095AEB0C0A80E8F80780410130BDE82C
:10017000F00770472DE9F00791E8F807B2E80210A0
:100180005B1A74EB0C04B2E802108D4176EB0C069E
:10019000B2E802108F4178EB0C08B2E8021079EB5C
:1001A00001097AEB0C0A80E8F80780414042BDE87B
:1001B000F00770472DE9F007524290E87800B1E867
:1001C00080071740DB1918EA020854EB080419EA03
:1001D000020955EB09051AEA020A56EB0A0678C02D
:1001E00090E87800B1E8800717407B4118EA0208E0
:1001F00054EB080419EA020955EB09051AEA020A48
:1002000056EB0A0678C080410130BDE8F007704720
:100210002DE9F007524290E87800B1E880071740D6
:10022000DB1B18EA020874EB080419EA020975EBF3
:1002300009051AEA020A76EB0A0678C090E8780007
:10024000B1E880071740BB4118EA020874EB0804C4
:1002500019EA020975EB09051AEA020A76EB0A06A1
:1002600078C080414042BDE8F00770472DE9F001B9
:1002700052424FF0040890E8300091E8C000A31B00
:100280001340E41AF618EB1B1340ED1AFF1830C0A8
:10029000C0C1B8F10108EED1BDE8F001704700BF60
:1002A00000B592E8DC072DE9DC07B1E8805702B41D
:1002B000A7FB02510A95A8FB020BE7FB6310E9FBC1
:1002C00062B00B91A8FB0351EAFB6201E7FB64B546
:1002D000E7FB6605E8FB6615CDF830B0A9FB03B671
:1002E000EAFB6316ECFB6356E8FB640BE9FB641B5B
:1002F000EAFB645BECFB646B0D90ACFB0230059C8D
:10030000EEFB6250E9FB6460EAFB64B0E7FB64313A
:10031000E8FB6451069CE8FB6461E9FB64B1EAFB1D
:1003200064010E93A7FB0432079CE7FB6462E8FBC1
:1003300064B2E9FB6402EAFB6412049CE9FB6453C7
:10034000EAFB6463089CE7FB64B3E8FB6403E9FB36
:100350006413EAFB64230F955DF8049B99E800069B
:10036000DDF80080A9FB0854EAFB68B4DDF81080D2
:10037000ECFB6804EEFB6814E9FB6824EAFB6834D4
:10038000DDF80480EEFB6865E9FB68B5EAFB68050B
:10039000DDF81480ECFB6815EEFB6825E9FB683599
:1003A000EAFB68450F96DDF80880AEFB0876E9FBAE
:1003B0006806EAFB6816DDF81880ECFB6826EEFBA1
:1003C0006836E9FB6846EAFB6856DDF80C80ECFB12
:1003D00068B7EEFB6807E9FB6817EAFB6827DDF8FA
:1003E0001C80ECFB6837EEFB6847E9FB6857EAFBCB
:1003F000686708B000BD00BF2DE9F14F87B0FFF777
:100400004FFFDDF81C8008F1200888E8FF00FFBCE2
:1004100087E87F08BDE8F08F00B591E89857A3FB07
:1004200003520195A3FB0401E3FB6420E3FB671087
:100430000292A3FB0752E3FB6802E4FB6415E3FBB3
:100440006805E3FB69250391A4FB07B6E3FB692676
:10045000E3FB6A56E4FB670BE4FB682BE3FB6A5B98
:10046000E3FB6C6B0490A4FB0810E4FB6950E3FB16
:100470006C60E3FB6EB0E7FB6721E4FB6951E4FBD2
:100480006A61E3FB6EB1E4FB6E010592A7FB0832E3
:10049000E4FB6A62E4FB6CB2E4FB6E02E7FB6E1203
:1004A000E7FB6853E7FB6963E4FB6CB3E7FB6C03B2
:1004B000E7FB6E13E8FB6E230695A7FB0954E7FBE9
:1004C0006AB4E7FB6C04E8FB6C14E8FB6E24E9FB00
:1004D0006E34E8FB6865E7FB6AB5E8FB6A05E8FB94
:1004E0006C15E9FB6C25E9FB6E35EAFB6E4507965A
:1004F000A8FB0976E8FB6A06E9FB6A16E9FB6C26AD
:10050000EAFB6C36EAFB6E46ECFB6E56E8FB69B71D
:10051000E9FB6907E9FB6A17EAFB6A27EAFB6C3724
:10052000ECFB6C47ECFB6E57EEFB6E6700BD00BF4B
:100530002DE9F14F87B0FFF76FFFDDF81C8008F160
:10054000200888E8FF00FFBC87E87F08BDE8F08F3F
:1005500030B44FF0000310F8014B11F8015B013A81
:1005600084EA050443EA0403F5D1A3F101034FEA49
:10057000D37030BC704700BF4FF0000310F8012B60
:10058000013943EA0203F9D1A3F101034FEAD37021
:10059000704700BF30B411F8014B12F8015B6C409A
:1005A00000F8014B013BF6D130BC70472DE9F00754
:1005B00091E8F807B2E802105B1854EB0C04B2E8BB
:1005C00002104D4156EB0C06B2E802104F4158EBB9
:1005D0000C08B2E8021059EB01095AEB0C0A8941E8
:1005E000B3F1FF3374F1FF3475F1FF3576F1000696
:1005F00077F1000778F1000879F101097AF1FF3A03
:1006000051F100015B184C414D4156F1000657F184
:10061000000758F1000859EBD1795AEB010A80E83C
:10062000F807BDE8F00770472DE9F00791E8F807F3
:10063000B2E802105B1A74EB0C04B2E802108D41B0
:1006400076EB0C06B2E802108F4178EB0C08B2E8AA
:10065000021079EB01097AEB0C0A89415B184C41D5
:100660004D4156F1000657F1000758F1000859EBCB
:10067000D1795AEB010A80E8F807BDE8F007704726
:1006800018EB040859EB05095AEB060A5BEB070B5C
:100690005FF0000C4CF1000C18EB050859EB060953
:1006A0005AEB070A5BEB070B50EB0C005FF0000CFA
:1006B00051EB0C0152EB0C0263414CF1000CB8EB16
:1006C000070879F100097AF1000A7BEB040BA841D5
:1006D000B141A241B3416CF1000CBBEB050BB04141
:1006E000B941AA41BB416CF1000C6FEAEC74B8EB64
:1006F000040879EB04097AEB040A7BF1000B70F132
:10070000000071F1000172EBD472A3416CF1000C96
:1007100018EBEC7859EBEC795AEBEC7A5BF1000BC7
:1007200050F1000451F1000552EBDC7653EBEC770D
:100730004CF1000C18EBEC7059EBEC715AEBEC72CD
:100740005BF1000354F1000455F1000556EBDC7633
:1007500057EBEC77704700BF2DE9F14F87B0FFF7FB
:100760009FFDDDF81080DDF81490DDF818A0FFF78C
:1007700087FFBDE8000FFFF783FF03B05DF8048B30
:1007800088E8FF00BDE8F08F2DE9F14F87B0FFF753
:1007900043FEDDF81080DDF81490DDF818A0FFF7B7
:1007A0006FFFBDE8000FFFF76BFF03B05DF8048B30
:1007B00088E8FF00BDE8F08F01480078704700002E
:1007C0002800002070B5174C6078002823D1012044
:1007D00060700BF018FE6FF0270528B90BF049FE8A
:1007E00010B90BF050FE20B10F486060A5700820D2
:1007F00010E00BF0DDFD40B90BF0E4FD28B90BF083
:10080000F8FD10B90BF009FE30B1074831306060D7
:10081000A5700420E07070BD4FF48F71742003F058
:10082000C7FB00002800002034070100084991F9A7
:100830000320904203DA91F90220904201DC104635
:1008400070474968801A085C0249085670470000E2
:1008500028000020260701002DE9F0411C469046A3
:100860000D4606466FF01507042804D81CB10BF09E
:1008700041FAA84202D83846BDE8F0810548424610
:1008800050F8260018B14057824200DD024622701F
:100890000020F1E7480C0020002819D00378134904
:1008A000134A13B1012B0ED011E00379012B00D0B4
:1008B0006BB943790BB1012B09D18368643B8B423F
:1008C00005D2C0680EE00379012B02D00BB10020E5
:1008D000704743790BB1012BF9D1C368643B8B425C
:1008E000F5D280689042F2D8012070473D86010021
:1008F000FF3F420F10B5054C206810B18047002023
:100900002060BDE8104002F063B800003000002015
:100910002DE9F0410E46050004D000F047F80746E7
:1009200000240BE06FF01500BDE8F081204600F0D8
:1009300043F890F8260030B1641CE4B2BC42F5D311
:100940006FF00B00F0E72746FF2CF9D0204600F0AF
:1009500033F804460BF09AFB84F8287021460848C7
:1009600002F00EF884F82700202806D00120256226
:1009700084F8260037700020D6E76FF02200D3E716
:10098000B7BD000010B5820702D06FF00D0010BD9A
:10099000054A1170506028B101EB41010A010021A4
:1009A0000BF0F5FD002010BD340000200148007858
:1009B000704700003400002005490A78904201D3B6
:1009C00000207047496800EB400001EB00107047C1
:1009D000340000200E4910B591F82D00202812D0C7
:1009E00091F82D00A1F58062C0EBC00002EB800001
:1009F00091F82D104068C1EBC10152F82120BDE8EB
:100A000010400421104740F6BC01702003F0D0FADA
:100A10005C10002070B50546202A28D019481A4CD1
:100A200000EB831C03EB43030CEB4200234420291F
:100A300022D00CEB410140784C78487020460146AA
:100A40000CEB4100914205704078F8D193F82220D8
:100A5000202A1ABF0CEB4202547083F82140202256
:100A60000CEB410C8CF8012083F8221070BD4FF480
:100A70002671702003F09CFA93F82040407883F8A8
:100A80002000DBE7DC0F00205C1000202DE9FF4F89
:100A90008DB015460C4602F0E7F9284420F07F405F
:100AA00008902168081A0002C11700EB11600012BB
:100AB000002800F3F080DDF84080CD4808EB4801C5
:100AC0000844099090F820502020CA4E0DF1180AD1
:100AD0000DF11C098DF81800202D1CBFC64800EB35
:100AE000881B38D0C5EBC50006EB800000F108017B
:100AF000C0682768381A0002C21700EB12600012A3
:100B000029D4E08900B3C889F0B90868039003F0DC
:100B1000A5F8B0F5C67F08BF0D200BD0A0F540703A
:100B2000563808BF1C2005D0A0F500709F3814BFB0
:100B300000203220411C0398381A0002C21700EB33
:100B400012600012884206DB0BEB45008AF8005069
:100B50004578202DC6D19AF8000089F80000202D94
:100B60001CBFA54800EB881B00F03E81C5EBC5000B
:100B700006EB80076168D7F8088007F10800A8EB4A
:100B800001010902CA1701EB1261091227D4C089B9
:100B9000002800F02981E089002840F02581D4F860
:100BA00000A003F05BF8B0F5C67F08BF0D200BD0A6
:100BB000A0F54070563808BF1C2005D0A0F5007085
:100BC0009F3814BF00203220411CA8EB0A0000020D
:100BD000C21700EB12600012884280F2058189F88A
:100BE0000050387E217C884206D90BEB45004578C1
:100BF000202DBBD100F0F8B89DF81C00C0EBC00060
:100C000006EB8000C18AC568E1BBE189D1B3876882
:100C100003F024F8B0F5C67F08BF0D200BD0A0F577
:100C20004070563808BF1C2005D0A0F500709F38D2
:100C300014BF00203220411CE81B0002C21700EB49
:100C40001260001288421DDA03F008F8B0F5C67F82
:100C500008BF0D200BD0A0F54070563808BF1C20EF
:100C600005D0A0F500709F3814BF002032209DF8F9
:100C70001C10401CC1EBC10106EB810189680844CE
:100C800020F07F450898281A0002C11700EB116078
:100C90000012002803DD11B00020BDE8F08F2068AD
:100CA000A84202D9A168491CA16061680DF1180A27
:100CB000081A284425F07F4120F07F40C4E9001045
:100CC00010980B9009980DF11C0890F820502020E6
:100CD0008DF81800202D3CD047490B9801EB801B64
:100CE000C5EBC50006EB800000F10801C06827686D
:100CF000381A0002C21700EB1260001229D4E089F2
:100D000000B3C889F0B9D1F8009002F0A7FFB0F5A0
:100D1000C67F08BF0D200BD0A0F54070563808BF25
:100D20001C2005D0A0F500709F3814BF0020322091
:100D3000411CA7EB09000002C21700EB1260001271
:100D4000884206DB0BEB45008AF800504578202DE1
:100D5000C6D19AF8000088F800000B98202D1CBF1F
:100D6000254901EB801B3FD0C5EBC50006EB800792
:100D70006068D7F8089007F10801A9EB00000002AD
:100D8000C21700EB1260001222D4C88960B3E08958
:100D900050BBD4F800A002F061FFB0F5C67F08BFD9
:100DA0000D200BD0A0F54070563808BF1C2005D090
:100DB000A0F500709F3814BF00203220411CA9EB21
:100DC0000A000002C21700EB1260001288420BDA20
:100DD00088F80050387E217C88427FF60DAF0BEBFF
:100DE00045004578202DBFD111B00120BDE8F08F1E
:100DF0005C1000205C0C0020DC0F00202DE9F84F77
:100E00000F46064601EB47004B4999460844924677
:100E100090F8204020201070A1F58068202C1CBF85
:100E2000464800EB871B38D0C4EBC40008EB8000B9
:100E300000F10801C0683568281A0002C21700EBEB
:100E40001260001229D4F08900B3C889F0B908688B
:100E5000009002F003FFB0F5C67F08BF0D200BD055
:100E6000A0F54070563808BF1C2005D0A0F50070D2
:100E70009F3814BF00203220411C0098281A00021D
:100E8000C21700EB12600012884206DB0BEB440035
:100E90008AF800404478202CC6D19AF8000089F8DE
:100EA0000000202C1CBF254800EB871A40D000BF53
:100EB000C4EBC40008EB80077068BD6807F1080147
:100EC000281A0002C21700EB1260001222D4C8894F
:100ED00070B3F08960BBD6F800B002F0BFFEB0F589
:100EE000C67F08BF0D200BD0A0F54070563808BF54
:100EF0001C2005D0A0F500709F3814BF00203220C0
:100F0000411CA5EB0B000002C21700EB126000129F
:100F100088420DDA89F80040387E317C884202D858
:100F20000020BDE8F88F0AEB44004478202CBFD1A4
:100F30000120BDE8F88F00005C100020DC0F0020CD
:100F40002DE9F74F98B015468B4602F03BFA044660
:100F500002F0B6FC0646BBF1010F18BFBBF1020F51
:100F600005D040F692114FF0700003F021F8FF49D0
:100F700001200860FE498968086000208DF856004D
:100F80000E90401E0F90FB49C5EBC50001EB8001A0
:100F9000D1E9020CD1E90423CDE9100CCDE91223EB
:100FA000896914910BF01FF90146BDF84E809DF838
:100FB0004C00F14B4044421C881899424FD8EF4DE9
:100FC000AA4253DC69428A4258DB591C8142DCBF89
:100FD00000F5F700A0F1F85005DD0028BCBFA0F532
:100FE000F70000F1F8500C90E548B8F1000F808B45
:100FF000ADF8540004BF00200B900BD001200B90E3
:10100000DF4890F82A0028B902F05AFF002808BFEC
:10101000012700D0002702F021FEB0F5C67F08BFEF
:101020000D200BD0A0F54070563808BF1C2005D00D
:10103000A0F500709F3814BF002032204FF0000947
:10104000CA460990464537D90C99DFF82C936FEAC8
:10105000060C6B4616AA01EB0C00494504D940F278
:101060009E51702002F0A4FFAC4504DD40F29F5178
:10107000702002F09DFFC3498C4504DA4FF4B4613F
:10108000702002F095FFC0498142DCBF00F5F700F7
:10109000A0F1F85005DD0028BCBFA0F5F70000F175
:1010A000F850194601F0FCFE0098109920F07F409E
:1010B0000090081A20F07F49002F18BFDDF824A007
:1010C00005D19DF85400002818BF4FF0020AB4F172
:1010D000807F08D01098001B0002C11700EB116040
:1010E0000012012802DA0320189D0DE057B1A44830
:1010F00090F82B0030B19DF8540010F1000A18BF91
:101100004FF0020A2546002082441098A0EB090007
:1011100020F07F42501E20F07F40411B0902CB1778
:1011200001EB13610912514504DBB9F1000F18BF3F
:1011300010922DE0B9F1000F05D09DF8550020B9AF
:1011400002F0B4FB08B1AFB90CE02FB99DF8540020
:10115000002818BFAAF1020A4FF000098DF8549038
:101160004E4607E09DF8540020B100208DF8540051
:10117000AAF1020A1098A0EB0900401E20F07F405F
:10118000411B0902CA1701EB1261091251457CDBB0
:101190000A9705464FF000090B9F01F0EBFF281A54
:1011A0000002C11700EB11604FEA202A02F056FD41
:1011B000B0F5C67F08BF0D200BD0A0F540705638A3
:1011C00008BF1C2005D0A0F500709F3814BF002078
:1011D00032200B30824520DABBF1010F02D00A9891
:1011E00040B112E0B4F1807F1CD140F613117020A1
:1011F00002F0DEFEB4F1807F07D0601B0002C11751
:1012000000EB11600012042804DD2C46204601F09A
:10121000D7FF07E0002864DC04E02C46204601F0FC
:10122000CFFFB946B4F1807F56D01098119A001BB9
:10123000121B20F07F4022F07F42012851D3B0F5ED
:10124000000F98BFB2F5000F4BD820460AF0CBFF35
:101250000C994A4A0D1A4FF0000AAA1A7AF10002B4
:1012600018D3464B421AD31A7AF1000312D3424BD9
:10127000AB423EBFC0F5902000F1F450451809D3B1
:10128000934232D2C1F5902100E02AE001F1F451FD
:10129000084445423A4FB87F60B300BFBBF1010F2D
:1012A00005D0022002F0C8F9012002F0C5F9B045CE
:1012B0002CD2A5EB06014FF0020002F007F990B323
:1012C000B8F1000F1CBFA5EB0801012034D000BF0E
:1012D00002F0FCF838B32FE040F62621702002F02F
:1012E00067FE1BB00020BDE8F08F40F6FA217020A9
:1012F00002F05EFEB04534BF304640461E30A84284
:10130000CCDB40F63A21702002F052FE0CD9A5EB5E
:101310000801012002F0DAF828B1002E1CBFA91B39
:10132000022009D0D4E741E056EA080004D040F694
:101330007611702002F03CFE2946002002F0C6F82B
:10134000A0B30B980126002804BF97F82B000028B3
:1013500002D0B9F1000F34D097F82A0018B102F08A
:1013600083FC87F82AA0B9F1000F0FE008050040C0
:101370003C0000205C0C0020FF7F841E0040420FD8
:101380005C10002000C0BDF00080841E1CD00998B5
:10139000201A20F07F41052002F098F860B397F8FA
:1013A0002B00002808BF87F82B6015E0FFE702201C
:1013B00002F042F9012002F03FF91BB00020BDE825
:1013C000F08F97F82A0090B197F82B0020B10520F4
:1013D00002F032F987F82BA0A5EB0800A0F1190163
:1013E00000290EDC40F66321702002F0E1FD02F0DE
:1013F00057FC87F82A60B6E74FF43E71702002F080
:10140000D7FD032002F062F8C0B10F488068C0F831
:1014100000A00E48C0F800A00EAC94E80F003860A1
:101420007960BA60FB6012AC94E80F0038617961B2
:10143000BA61FB611BB00120BDE8F08F40F66B2163
:10144000702002F0B5FD00003C00002008050040BF
:101450002DE9FF4F14460D464FF0000A0A89514608
:1014600062F31F41AA7AD14662F30709EA7A064677
:1014700062F30F292A7883B04068C4F800A062F3B1
:101480001749C4F804A0C4F81090C4E902019D4FA4
:101490007068A0FB078930680AF0A5FE10EB080110
:1014A0004AEB090228784FEA6709C9F1000B70B1CD
:1014B000E08994F81180C043D5F804A004F10C022F
:1014C00048457CDD40F29F51702002F071FDDFF84D
:1014D00038C2D5E9040311EB0C0A42F1000CB0EB61
:1014E0000A0A73EB0C0C72D2411A73EB02016ED331
:1014F000B0EB0806B7422BD8E089A6F1F458A8F55E
:101500009028C143814A08EB010042452BD349454D
:10151000D8DC594566DB8742DCBF00F5F700A0F157
:10152000F85005DD0028BCBFA0F5F70000F1F85029
:101530006A4601A901F0B4FCE0899DF80010301A58
:10154000401A401EB84202D3A068401CA060464624
:10155000E0896E4BC1436D6894F81180701804F1F6
:101560000C029E4204D940F29E51702002F020FDF0
:101570004945A7DC594535DB8742DCBF00F5F7005C
:10158000A0F1F85005DD0028BCBFA0F5F70000F180
:10159000F850214601F084FC206820F07F4170194A
:1015A000401C2160B8F1000F08BF7A3004D0B8F1B8
:1015B000010F08BF48303AD101F056FC01E00EE0BF
:1015C00005E020F07F40606007B0BDE8F08F306834
:1015D000401E20F07F40206000F57A70F3E701465E
:1015E000584504DA4FF4B461702002F0E1FC874200
:1015F000DCBFA1F1F450A0F5902005DD0028BCBFB0
:1016000001F1F45000F59020214601F049FC2068DA
:10161000B8F1000F20F07F410AF10100216008BFFE
:101620007A3009D0B8F1010F08BF483004D040F239
:101630003961702002F0BCFC01F016FC20F07F4103
:101640006160B4F80E9001AA69464846376801F017
:1016500027FC02F035F901F007FC80462C4890F891
:101660002D1020292AD0C068401D20F07F4000BFE7
:10167000D4E90021891A014421F07F41C4E9000125
:101680003168814202D9A068401CA0603268286994
:101690002146069BFFF7FAF900281CBF07B0BDE8FA
:1016A000F08FD4E90010401A316821603168084495
:1016B00020F07F40606007B0BDE8F08F0937B9F1D6
:1016C000000F16D002F0FCFB98B902F0C7FAB0F593
:1016D000C67F08BF0D200BD0A0F54070563808BF5C
:1016E0001C2005D0A0F500709F3814BF00203220C8
:1016F00007440098804584BFA8EB0000074427F00A
:101700007F40B5E70080841E0040420FFF7F841EAB
:101710005C10002070B51E4D95F82D00202818BFD4
:1017200070BD95F82C2002EB4200284490F8204030
:10173000202C27D0174B03EB821101EB4401497891
:1017400080F82010FF2085F8290085F82D402146DB
:10175000022000F091F8002085F82800A8770E49B3
:10176000C4EBC40001EB8000007E002808BF02F03B
:1017700089FD002009494968002908BF70BDBDE8FE
:101780007040084740F23231702002F011FC000036
:101790005C100020DC0F00205C0C00203C000020CE
:1017A0002DE9F05FDFF8C08098F82C5005EB45007C
:1017B000404490F82140202C08BFBDE8F09FDFF89E
:1017C000ACB0DFF8ACA0AAF560790AEB8517072664
:1017D00017F8140001280ED0042808BF02260AD0EA
:1017E00005280CBF0326062805D040F6DD014FF082
:1017F000700002F0DDFBBBF1000F18BFAFF30080FB
:10180000EFF3108072B607EB44014A7805EB45010F
:10181000414481F8212091F82220A24204BF2022D5
:1018200081F82220C0B12A462146012000F024F888
:10183000C4EBC40109EB810059F82120406831460E
:10184000904798F82C5005EB4500404490F8214013
:10185000202CBAD1BDE8F09F0648002818BFAFF38E
:10186000008062B6DFE700005C100020000000008E
:10187000DC0F002000000000DFF858C010B5002386
:101880000CEB821C07281FD2DFE800F005050505D8
:101890000404040001230CF81100002B08BF10BD44
:1018A00002EB42020C48024492F8220020280EBFAC
:1018B00082F821100CEB4000417020200CEB41031A
:1018C000587082F8221010BD40F26E21702002F094
:1018D0006FFB0000DC0F00205C1000202DE9F05FA2
:1018E0000F468046DFF858A101EB47005044B8F19D
:1018F000010F90F82040254618BFB8F1020F05D01F
:1019000040F6A1214FF0700002F052FB4FF0000BA7
:10191000202D42D09AF81E000026002808BF02267B
:1019200001F028FCDFF81CC1C4EBC4010CEB810101
:101930008A68C968121A091A22F07F4221F07F4191
:10194000964299BFB2F5000FB1F5000F3E4A02EB87
:10195000871920D9224609EB42014C78202C12D05D
:10196000C4EBC4010CEB81018B68C9681B1A091A0E
:1019700023F07F4321F07F419E429CBFB3F5000FCF
:10198000B1F5000FE6D8202A05D03B4620210420DF
:10199000FFF740F80446AC4216D12C48002818BF87
:1019A000AFF3008001F0E6FB03469AF82E002028F2
:1019B0000DD0DAF80800991C081A0002C11700EBD4
:1019C00011600012002802DD0020BDE8F09F202DEC
:1019D00014D02A4641461846FFF7B2FA00281EBF27
:1019E0008AF82E500220BDE8F09F3B462A4620216F
:1019F0000420FFF70FF80020BDE8F09F9AF82A00B6
:101A000018B102F031F98AF82AB09AF82B0020B107
:101A1000052001F011FE8AF82BB0042001F00CFE25
:101A200001F07AFE20208AF82E0009488068C0F86C
:101A300000B00848C0F800B00120BDE8F09F0000E9
:101A40005C1000205C0C0020DC0F00200000000077
:101A50003C00002008050040064910B591F82D20F3
:101A6000202A1CBF887710BD40F29A31702002F006
:101A70009FFA00005C1000202DE9F04F694E0746E8
:101A80008DB096F82D008846202855D096F82D0068
:101A900006F10804C0EBC000A6F5806909EB800AD6
:101AA00020208DF8200096F82C000AAA00EB4000B8
:101AB000304409A990F82050F0680290306838440A
:101AC00001F0EEF9DAF80C000999652F084438D3D3
:101AD000554A0021D21B71EB010232D32268821ACF
:101AE00022F07F42B2F5000F2BD820F07F406060DB
:101AF000304684F8108090F82C000DF1200A202D3B
:101B00001CBF4A4901EB801B50D000BFC5EBC5008C
:101B100009EB80086168D8F8086008F10800711ABC
:101B20000902CA1701EB126109122DD4C0890028DD
:101B30003CD0E08948B139E040F66831702002F0CD
:101B400037FA0DB00120BDE8F08F20680C9002F04C
:101B500085F8B0F5C67F08BF0D200BD0A0F540700A
:101B6000563808BF1C2005D0A0F500709F3814BF60
:101B700000203220411C0C98301A0002C21700EBE2
:101B800012600012884211DA8AF8005098F8181092
:101B9000207C814205D8029860600DB00220BDE82B
:101BA000F08F0BEB45004578202DAFD1052001F0DB
:101BB00043FD1C4C4FF0FF30606094F82C309DF8D2
:101BC00020202021202A03D00520FEF723FF04E057
:101BD00003EB4300204490F8200094F82C20134994
:101BE00001EB821194F82D2001EB4201487020682E
:101BF00038442060FF2084F82900607E012805D148
:101C0000E068401E20F07F4001F07AFB9DF8200044
:101C1000202803D00648407802F09EFA0DB000203C
:101C2000BDE8F08F5C1000200040420FDC0F002068
:101C30003C000020064810B590F82D1020291CBF4C
:101C4000007E10BD40F66231702002F0B1F9000054
:101C50005C10002070B5C0EBC001094800EB8104A6
:101C600008492069A0FB0156A0680AF0BCFAE18A85
:101C7000227D401C11440844401946F1000170BD0A
:101C80005C0C00200080841EF8B56B4D6B4A05F596
:101C90008064012694F82A1008287CD2DFE800F03E
:101CA000047097A9C741AEB319B901F0F9FF84F8E0
:101CB0002A60E08A10B102F003F980B1FFF72AFD33
:101CC000FF2084F827006168B1F1FF3F03D00520B1
:101CD00001F0FCFB40B1607E012810D109E040F624
:101CE0006901702002F064F940F66E01702002F084
:101CF0005FF9E068401E20F07F4001F001FB94F89E
:101D00002D0094F82D10C0EBC00005EB800040685A
:101D1000C1EBC10155F8212001B00121BDE8F0401F
:101D2000104794F82B0040B119B901F0B9FF84F8BD
:101D30002A60002084F82B00F8BDFFF7EBFC4FF081
:101D4000FF30606094F827008DF800009DF80000D7
:101D500088B194F82D0094F82D10C0EBC00005EB6D
:101D600080004068C1EBC10155F8212001B0062177
:101D7000BDE8F040104740F68501702002F018F9E8
:101D8000FFF7C8FC84F8266002F09AF820B194F8B6
:101D90002A0030B109E04AE040F69301702002F0D9
:101DA00007F901F07DFF84F82A6094F82D0094F87B
:101DB0002D10C0EBC00005EB80004068C1EBC101F5
:101DC00055F8212001B00021BDE8F040104701F096
:101DD00059FDE08A10B102F073F828B101F066FDF8
:101DE000002818BF6677F8BD40F69D01702002F00C
:101DF000DFF81348066090680660F8BD1078BDE80B
:101E0000F84002F0A9B9FFF785FC94F82D0094F88A
:101E10002D10C0EBC00005EB80004068C1EBC10194
:101E200055F8212001B00521BDE8F04010474FF4DE
:101E30000B61702002F0BCF85C0C00203C0000201C
:101E4000080500402DE9F34F8246EF4895B0006841
:101E5000EE4DC005C00D0ED0103840B20028B8BFFE
:101E600000F00F0000F1E020ACBF90F8000490F803
:101E7000140D40090DD016984FF0000B0078002883
:101E800018BF012818D040F23B714FF0700002F0EB
:101E90008FF895F82D004FF0010B202807D01698E9
:101EA000007848B140F23771702002F081F840F2BA
:101EB0003471702002F07CF8D54C24B1002140F23E
:101EC0003E70AFF300800020CDE91000D149CAEB8D
:101ED000CA0001EB80004FF00109009024B10021FD
:101EE00040F24970AFF30080B9F1000F0AD000BF93
:101EF00095F82C604FF0000885F82980BBF1000FA1
:101F000007D038E0C448002818BFAFF3008062B69D
:101F1000EEE73746012020EA0706C048402200EBE2
:101F2000871100EB86100AF0B8FA24B1002140F2C4
:101F30005E50AFF3008007EB470106EB46002944F3
:101F400028440A8C028491F8221080F8221024B1CF
:101F5000002140F26250AFF3008024B1002140F232
:101F60005370AFF3008095F829008DF808009DF8B4
:101F700008000028B2D124B1002140F25D70AFF317
:101F8000008002A801F0FCF8DDE90201CDE90E01B4
:101F9000334609AA0EA81699FFF75AFA24B1002170
:101FA00040F26470AFF300809C4A0E9902EB8617F2
:101FB00009A817F81A20012A18BF022A38D1099A4D
:101FC0000A9BA2EB010222F07F42A3EB0101CDF8B4
:101FD000448021F07F41022A64D3B2F5000F98BFFC
:101FE000B1F5000F5ED84FF0010814AB13AA3146CB
:101FF000FEF704FF00285DD09DF84C109DF850209E
:1020000033468A425AD00520FEF704FD07EB4A0109
:1020100048709DF84C0020281CBF07EB400080F85A
:1020200001A057D0324651465FF00300FFF724FC71
:1020300024B1002140F26970AFF300807848002895
:1020400018BFAFF30080EFF3108972B624B10021FE
:1020500040F26F70AFF3008095F829008DF808000A
:102060009DF8080000287FF439AF24B1002140F228
:102070007770AFF3008009AF009897E80E1000F179
:102080000807B8F1000F87E80E100D99816151D053
:1020900024B1002140F28470AFF30080BBF1000F47
:1020A00039D11FE0324651460420FFF7E5FB4FF0DF
:1020B0000108BDE7324651460420B7E7202919BF81
:1020C00007EB4100407806EB4600284408BF90F833
:1020D00020009BE706EB4601294481F820A0CDF8BB
:1020E00044809FE7119810F0FF0F14D095F82D0051
:1020F000202810D124B1002140F28970AFF3008074
:1021000031460220FFF7EAFB109020B916980078BC
:10211000E8B101282AD024B1002140F2A670AFF323
:102120000080FF20BBF1000F18BF85F8290026D0E2
:102130004FF0010824B1002140F2B770AFF30080E6
:102140001098384E022823D0012829D02DE024B140
:10215000002140F29170AFF3008095F82C20514699
:102160000420FFF789FB4FF00108E3E7002C3FF460
:10217000B5AE002140F29C70AFF30080AEE695F85A
:102180002C200121914385F82C1085F82900CFE7F8
:10219000A8680E99401A0AF026F8716821B904E07F
:1021A00071684FF0FF3001B18847B9F1000F24D0BA
:1021B00024B1002140F2C770AFF30080B8F1000FE6
:1021C00011D095F82C0000EB4000284490F8210035
:1021D000202808D024B1002140F2CE70AFF3008057
:1021E000707801F0B9FF24B1002140F2D370AFF351
:1021F000008017B04046BDE8F08F0748002818BFA0
:10220000AFF3008062B6D3E704ED00E05C1000207D
:10221000000000005C0C002000000000DC0F00202B
:10222000000000003C0000202DE9F04F0646007839
:102230008DB018B10DB00020BDE8F08F8C4800685B
:10224000C005C00D0ED0103840B20028B8BF00F055
:102250000F0000F1E020ACBF90F8000490F8140DDE
:102260004009E7D0834D844C4FF0010B002725B186
:10227000002140F2E550AFF3008094F82CA084F8E0
:1022800029704FF0000925B1002140F2EA50AFF368
:1022900000807A482BEA0A0800EB8A1100EB8810CC
:1022A00040220AF0FAF825B1002140F25E50AFF367
:1022B00000800AEB4A0108EB4800214420440A8CC4
:1022C000028491F8221080F8221025B1002140F2FA
:1022D0006250AFF3008025B1002140F2EF50AFF320
:1022E000008008A800F04CFFDDE90801CDE90A01F3
:1022F00043466A4631460AA8FFF7AAF825B10021ED
:1023000040F2F550AFF3008094F82D0020281AD049
:10231000E0680099091A0902CA1701EB1261091253
:1023200011D50099814202D90299491C0291DDE937
:102330000021891A20F07F42084420F07F40CDE937
:1023400000204FF0010925B1002140F2FF50AFF30A
:10235000008000990A98019A091A101A21F07F4109
:1023600020F07F40B1F5000F98BFB0F5000F09D8FD
:102370004346694642480A9AFEF788FB59EA00003C
:1023800029D142E00B98BDF80EA0029009AA07A936
:102390005046DDF8288000F083FD01F091FA00F04E
:1023A00063FD814694F82D0020283BD0E068401D55
:1023B00020F07F400099814202D90299491C029184
:1023C000DDE90021891A0090084420F07F40019047
:1023D0001F208DF80C00009809F005FF411CBDF886
:1023E0000E009DF80C2010440844C6E9040725B1EE
:1023F000002140F21A60AFF30080D6E90410214AB0
:10240000029BE3FB0210C6E9041094F829008DF842
:1024100014009DF8140000287FF429AF0DB00120AE
:10242000BDE8F08F08F10908BAF1000F16D001F0ED
:1024300047FD98B901F012FCB0F5C67F08BF0D202A
:102440000BD0A0F54070563808BF1C2005D0A0F571
:1024500000709F3814BF3846322080440798814569
:1024600084BFA9EB0000804428F07F40A2E7000071
:1024700004ED00E0000000005C100020DC0F0020F4
:102480000040420F0080841E2DE9F14F924D8CB028
:1024900095F82C0000200890069001208F4CA5F1A3
:1024A00080094FF000080746079024B1002140F250
:1024B000E470AFF30080079800283CD085F82980AD
:1024C00024B1002140F2E970AFF3008095F82CA010
:1024D000402227EA0A0609EB861009EB8A11834697
:1024E00009F0DBFF24B1002140F25E50AFF3008021
:1024F00006EB46000AEB4A012844294400900A8C66
:10250000028491F8221080F8221024B1002140F2B8
:102510006250AFF3008095F829008DF808009DF80F
:10252000080078B1002C1CBF002140F2EF70BCD035
:10253000AFF30080B9E76A48002818BFAFF3008006
:1025400062B6BBE724B1002140F2F370AFF3008024
:102550000C981BF8100003287ED1009A0C9992F871
:102560002000884214BF4FF0000A4FF0010A02F128
:10257000200C8346202209EB861303E0024603EB7E
:1025800042004078884202D020280AD0F6E720286E
:1025900007D0834507D103EB4B0040788CF800004F
:1025A00007E040460CE003EB400003EB42014078BB
:1025B000487024B1002140F2C940AFF30080384692
:1025C000C34610EA0A0F18BFBB4600284ED024B1FC
:1025D00000214FF4FF60AFF30080324601200C99D8
:1025E000FFF74AF924B1002140F60100AFF3008063
:1025F0003C48002818BFAFF30080EFF3108072B69C
:10260000079024B1002140F60600AFF3008095F852
:1026100029008DF808009DF8080038B1002C1CBF77
:10262000002140F60A003FF440AF81E7BBF1000F04
:1026300009D095F82D00202805D131460220FFF75A
:102640004DF90690F8B124B1002140F61E00AFF319
:10265000008095F82C0000E008E027EA000085F8EB
:102660002C00FF2085F829000120089024B10021CA
:1026700040F62700AFF3008006981B4E022809D0D1
:10268000012810D014E09CB1002140F61900AFF3EE
:102690000080ECE700F06EFDA968081A09F0A3FDC0
:1026A000716821B904E071684FF0FF3001B18847CB
:1026B000079848B124B1002140F63C00AFF30080F8
:1026C00008980DB0BDE8F08F0548002818BFAFF39B
:1026D000008062B6EEE700005C1000200000000001
:1026E00000000000000000003C000020202824BF63
:1026F00000207047C0EBC000034B43F8201003EBF1
:1027000080004260012070475C0C002010B520283A
:1027100011D20E4991F82C30A1F1800202EB831CFA
:102720001CF810303BB191F82C3002EB831212F8F8
:102730001020012A01D0002010BD91F82C20014664
:102740000020FFF799F8012010BD00005C10002068
:102750002DE9F84F864E804696F82C00A6F18007AA
:1027600007EB801010F81800002871D096F82C9014
:10277000804D25B1002140F6AE30AFF3008007EB6D
:10278000891414F81800012818D0C0B204281CBFFE
:102790000528062861D02DB14FF0000140F6BA306F
:1027A000AFF3008001F03EFD25B1002140F6BE30C0
:1027B000AFF3008014F818000128E6D1012425B1F8
:1027C000002140F6C530AFF30080002C4BD0002034
:1027D00086F8290025B1002140F6CA30AFF3008009
:1027E00096F82CB0012020EA0B0907EB8B1107EBC0
:1027F0008910402209F051FE25B1002140F25E50BF
:10280000AFF3008009EB490000EB060A0BEB4B002D
:102810003044018CAAF8201090F822008AF8220097
:1028200025B1002140F26250AFF3008096F82900F4
:102830008DF800009DF80000E0B1002D1CBF0021C4
:102840004FF43D60BBD000BFAFF30080B7E7FFE7B8
:1028500040F6A531702001F0ABFB4A46414601200D
:10286000FFF70AF8A0E74448002818BFAFF300803C
:1028700062B6ACE725B1002140F6D430AFF300805A
:102880009AF821300AF1210140461C464FF0200BF6
:1028900007EB89120AF1220A04E0A34602EB4B0C73
:1028A0009CF80140844202D0202C2BD0F5E7202C4C
:1028B00028D0A34204D102EB43004078087005E021
:1028C00002EB440002EB4B0140784870BAF1000F74
:1028D00011D025B1002140F2C140AFF300809AF839
:1028E0000000A04207D125B1002140F2C440AFF35F
:1028F00000808AF800B05DB1002140F2C940AFF31A
:10290000008000E025B1002140F6D830AFF3008010
:102910001A48002818BFAFF30080EFF3108472B696
:1029200096F829008DF800009DF8000038B1002DC0
:102930001CBF002140F6DE303FF441AF84E786F84B
:102940002C90FF2086F8290054B1002D08BFBDE867
:10295000F88F002140F6EB30AFF30080BDE8F88F30
:102960000548002818BFAFF3008062B6EDE700000D
:102970005C100020000000000000000000000000CB
:1029800070B50D46064601F089FA0F4890F82C20E4
:102990000024803800EB821010F8141029B1611C5B
:1029A000CCB2202CF8D3202070BD0848C4EBC40161
:1029B00040F8216000EB8100214645600120FEF7D0
:1029C0005BFF204670BD00005C1000205C0C002006
:1029D0002DE9F04F83B000F0CDFB054600F09CFEE2
:1029E000844C6068B0F1FF3F1CBF4FF0FF30606067
:1029F000A07FDFF8049290B9D4E90210401A20F0C9
:102A00007F404FF40C7109F019FCE1680844281A62
:102A10000002C11700EB11600012C00F12D0607EDF
:102A200020B394F827008DF800009DF80000E8B16D
:102A300000F0CEFC94F82800F0B140F2F53170209F
:102A400001F0B6FA94F82D0094F82D10C0EBC000F8
:102A500009EB80004068C1EBC10159F82120082131
:102A6000904740F2DD31702001F0A2FAE81C20F01E
:102A70007F4000F0A5FBDDE7012084F8280094F8F2
:102A80002D00202821D094F82D80202084F82D00BE
:102A900084F82E00002084F8260084F827002060A7
:102AA00000F014FF207794F82C6006EB460007191D
:102AB00097F82000202858D0C0EBC00009EB80090F
:102AC00099F81A00012805D04FE04FF47E7170206C
:102AD00001F06EFAB9F816B001AA6946584600F03E
:102AE000DFF900F0EDFE00F0BFF994F82D0020288A
:102AF00004D0E068401D20F07F401DE005F1090A88
:102B0000BBF1000F16D001F0DBF998B901F0A6F87F
:102B1000B0F5C67F08BF0D200BD0A0F54070563829
:102B200008BF1C2005D0A0F500709F3814BF0020FE
:102B3000322082442AF07F40D9F80820811A090205
:102B4000CB1701EB1361091200290EDC09F1080310
:102B5000824202D29968491E9960D3E90021891AFC
:102B60001860084420F07F40586031460120FEF78D
:102B7000B5FE5FEA0009F8D0204800EB861010F897
:102B80001800022804D1324641460620FEF774FEA2
:102B9000FF2084F8290097F82100194E20281CBF37
:102BA000707801F0D9FA207F20B100F06BFE002090
:102BB00020776077B9F1020F11D0B9F1010F1CBF76
:102BC00003B0BDE8F08F4FF0FF307168002904BFFB
:102BD00003B0BDE8F08F03B0BDE8F04F0847A06830
:102BE000401B09F000FB71680029F4D103B0BDE877
:102BF000F08F00005C1000205C0C0020DC0F002037
:102C00003C00002070B5424C054682B094F82D007F
:102C1000202808D06068B0F1FF3F09D040F6D921E4
:102C2000702001F0C5F940F6D821702001F0C0F9FC
:102C300094F82D003749C0EBC00001EB8006B06866
:102C400009F0D1FA0246F08A317D334B0844401C2A
:102C500011189A4217D8314A90421BDCC2F1000C7D
:102C600060451EDB56008E42DCBF01F5F701A1F185
:102C7000F85105DD0029BCBFA1F5F70101F1F851BC
:102C80004819994204D940F29E51702001F090F900
:102C9000954204DD40F29F51702001F089F96545AD
:102CA00004DA4FF4B461702001F082F98642DCBF8F
:102CB00000F5F700A0F1F85005DD0028BCBFA0F535
:102CC000F70000F1F85001AA694600F0E9F89DF814
:102CD00004000F288CBF012000200099084420F038
:102CE0007F41616094F827008DF800009DF8000096
:102CF000002804BF02B070BD052000F0E7FB0028EB
:102D00001CBF02B070BD4FF42E61702001F050F96D
:102D10005C1000205C0C0020FF7F841E0040420FEE
:102D200070B51C4C202184F8201084F8211084F800
:102D30002210002084F82C0084F82D10421EC4E9D3
:102D40000002A07784F8260084F8270020776077B7
:102D500084F82E1084F82A0084F82B00A4F1820154
:102D60001022887001F8040F521EFAD100F0B8FD4D
:102D7000094D012684F82860FF202870074801F0DB
:102D8000CDF9687001F038FAA86000F033FD84F8DE
:102D90002F6070BD5C1000203C000020A1170000D7
:102DA00000B583B0684600F0EBF9009809F01BFA13
:102DB000019A034B0021E2FB030103B000BD0000B8
:102DC0000080841E70B5064682B01D46104609F08C
:102DD0000AFA0446684600F0D3F920490198A0FB9E
:102DE0000102301A44BFA0F5F70010F1F85004D5E5
:102DF0004FF44061702001F0DBF8884204DB40F6BC
:102E00000141702001F0D4F8154A211A00238A1AD2
:102E100073F1000218D3DFF848C0021BB2EB0C0CB0
:102E200073F1000310D30F4B8B423EBFC0F59020CF
:102E300000F1F450011907D393420AD2C4F590214E
:102E400001F1F4510844414201F10F0002B0281A87
:102E500070BD40F6FA21702001F0AAF80080841EAF
:102E60000040420FFF7F841E410B48F237625143FE
:102E70000A0C094B510202FB03020848504300F5BB
:102E800086306E30400D5B4210FB03F3B2EB532FE4
:102E900088BF491C08447047F7C2FFFF6F0C010050
:102EA000430B48F2376C03FB0CF330B41B0CDFF818
:102EB00044C05C0203FB0C030F4858434FEA505CCC
:102EC00004EB0C0043F609541CFB04F404F5807C6D
:102ED00043F60855A3EB5C2C2C440CF0FF0CB3EB31
:102EE000542F84BF4FF0000C401C086082F800C0D3
:102EF00030BC7047F7C2FFFF6F0C01002DE9F041B5
:102F00003B4DD5F80403DFF8EC8010F4803F4FF41C
:102F100000664FF0E0274FF0000419D036480068F3
:102F2000B0B1C5F84041C7F88062D5F84005D8F87F
:102F30000010401A20F07F40022802D3B0F5000FA5
:102F400006D94FF48030C5F808030420FEF79CFE34
:102F5000D5F8040310F4003F1AD028480068B8B12F
:102F6000C5F84441C7F880622548D0F84005D8F834
:102F70000010401A20F07F40022802D3B0F5000F65
:102F800006D94FF40030C5F808030520FEF77CFE93
:102F9000D5F8040310F4802F1AD01A480068B8B18D
:102FA000C5F84841C7F880621748D0F84005D8F8FE
:102FB0000010401A20F07F40022802D3B0F5000F25
:102FC00006D94FF48020C5F808030620FEF75CFE02
:102FD000D5F80401002808BFBDE8F081C5F8044118
:102FE000C7F880620948C168491CC160BDE8F0812A
:102FF00000B0004004B5004040B1004044B1004082
:1030000004B0004048B1004008B000404800002033
:103010002DE9F041384D2878042868D0A81C0122F9
:10302000017859B1012908BF6A7002D06978002976
:1030300058D002210170407800F0FEFA2F4CD4F8ED
:1030400004034FF0000810F4002F4FF480774FF086
:10305000E0260AD02A48006838B1032000F0ECFAD4
:10306000C6F880720320FEF70FFED4F8040310F4B4
:10307000802F0AD02348006838B1022000F0DCFA23
:10308000C6F880720220FEF7FFFDD4F8040310F4A6
:10309000003F0AD01C48006838B1012000F0CCFA8B
:1030A000C6F880720120FEF7EFFDD4F8040310F497
:1030B000803F08BFBDE8F08114480068002808BFC1
:1030C000BDE8F081002000F0B7FAC6F88072042055
:1030D0002870C5F80480C4F80082BDE8F0410020E3
:1030E000FEF7D2BD40F2A3416C2000F061FFBDE8C5
:1030F000F0410720FEF7C8BD4800002000800040D6
:103100004C810040488100404481004040810040A3
:10311000012211024FF0E0230020C3F8801103F5D3
:10312000C073BFF34F8FBFF36F8FC3F800110E4909
:1031300041F8042F431EC1F80433C1F83C05C1F81F
:103140003C010A4BC3F84005C1F840011B1DC3F800
:103150004005C1F844011B1DC3F84005C1F84801F2
:10316000CA600349487070470080004004800040F6
:1031700048000020014800687047000004B5004086
:1031800030B4EFF3108C72B600250B4B0B4A00BF26
:10319000D3F80415D3F804412CB1D168491CD1608F
:1031A000C3F80451F4E7D268BCF1000F00D162B655
:1031B000C0E9001230BC704700B000404800002059
:1031C0002DE9F047464E0546B71E3378B968012B06
:1031D00004BFA942BDE8F0874FF04040414A10606B
:1031E000424A4148C2F8080302F1040C4FF00004BF
:1031F000002B62D03E48C2F84803CCF84045C2F8E4
:10320000444100BFD2F848014FF0E0294FF00108D7
:10321000002801BFD2F8040100284FF40060C9F86B
:1032200080024FF48030C2F80803C2F84803C2F8A5
:1032300040413048D0F800C0A5EB0C0C2CF07F4C7E
:10324000BCF1020F44D3BCF5000F41D8C2F8405581
:103250004FF4803CC2F844C32BB102688A1A22F0B2
:103260007F42022AF9D3C7F804803C70FFF750FF71
:103270002148D0F8041564F30101C0F80415D0F812
:103280000825022161F30102C0F808250421C0F8D5
:103290001015C0F80C807968C0F800128015C9F8C4
:1032A0008002C9F800011549C00508600420BD600E
:1032B000707086F80080BDE8F087C2F84803C2F855
:1032C0004045C2F84041CCF84045C2F8444199E736
:1032D0000020C2F8400540F297216C2000F068FE03
:1032E0004A00002008F50140FDFFFBFF00B0004050
:1032F000FDFFFAFF04B500400080004004F50140E6
:1033000070B52A4CA168814214BF01220022DFF867
:10331000A0C09CF80050022D02D0002A34D002E058
:10332000002A08BF70BD62789AB3224B4FF08042EA
:103330001A60214B9213C3F80823C3F848230022D4
:10334000C3F840211D4A1668861B26F07F46022ED0
:1033500024D3B6F5000F21D8C3F840054FF48036CA
:10336000C3F844632DB11368CB1A23F07F43022BBB
:10337000F9D3134B02214A071A60A06004208CF88D
:1033800001008CF8001070BD40F2A5216C2000F007
:103390000FFE40F2A9216C2000F00AFE0020C3F8C5
:1033A000400540F2B5216C2000F002FE48000020EC
:1033B0004A00002008F5014000B0004004B500407C
:1033C00004F5014001488068704700004800002073
:1033D0002DE9F0413648354AC0F80823DFF8D4C05B
:1033E000031D00219CF8004084B1334AC0F84823F3
:1033F000C3F84015C0F84411D0F848210123002A31
:1034000004BFD0F80401002811D10AE0C0F8482315
:10341000C0F84015C0F84011C3F84015C0F8441179
:10342000EAE74FF0E0224FF40060C2F88002022C7D
:1034300004D040F2C1216C2000F0BAFD1F4E30686C
:103440001F4CC01C20F07F40A2681E4D90420BD044
:103450003768D71B27F07F47042F05D3B7F5000F38
:1034600002D8FFF7ADFE1BE03068101A20F07F4055
:10347000022813D3B0F5000F10D8134A4FF0804044
:103480001060636021706B60EB604000111F08608A
:1034900004208CF801008CF8003001E0636021709A
:1034A0006068C5F80002BDE8F0810000FDFFFBFF89
:1034B00000B000404A000020FDFFFAFF04B50040C4
:1034C000480000200080004008F501402DE9F0414F
:1034D000544A0025012492F800C053784FF4A07696
:1034E00007287DD2DFE800F004040404585858008F
:1034F0004D4A9768B7F1807F04BF5278002A03D005
:10350000BCF1020F05D026E040F251316C2000F0F2
:103510004FFD1A1FD2B206EB820202F1804606F579
:1035200030460022BCF1010F03D0BCF1020F08D0DD
:103530000EE0042B24BF3768002F08BF4FF0004275
:1035400006E0042B24BF3768002F08BF42F08042FA
:1035500012F0804FE5D1DFF8D4C000F1100204FA78
:1035600002F2CCF808234FF0400303EB8003DBB2F8
:1035700063441C600CEB8000D0F84035A1EB0303E2
:1035800023F07F43032B26BFC0F84015CCF804235B
:10359000C0F8405537D23CE0BCF1000F06D0834262
:1035A00004D140F271316C2000F002FD021FD3B251
:1035B000032B04D34FF4E6716C2000F0F9FCDFF824
:1035C00070C003F1100204FA02F2CCF80823CCF820
:1035D000482306EB83034CF80350164B1B6800E0AE
:1035E0001AE0001FCB1A23F07F43C0B20CEB80001F
:1035F000022B0BD3B3F5000F08D8C0F84015CCF858
:103600000423CCF844230120BDE8F0810021C0F858
:1036100040150020BDE8F08140F275316C2000F0CB
:10362000C7FC00004A000020480000200080004045
:1036300000B0004004B500402DE9F8430126002702
:103640004FF4A078072851D2DFE800F00404040406
:103650001919190000F1100106FA01F22649C1F802
:10366000082301EB80030022C3F8402508EB800209
:103670008F50224951F820000090BDE8F883204D7A
:10368000011FCCB2297879B16A7882420CD11D4AE7
:103690004FF040401060012908BFFFF739FD2F703F
:1036A00019494FF080708860184904F1100006FA3B
:1036B00000F0C1F80803C1F84803A0000844D0F89E
:1036C0004005134A1268801A20F07F40022807D371
:1036D00001EB84020020C2F8400508EB84000F5083
:1036E0000C4850F824000090BDE8F88340F2F9310E
:1036F0006C2000F05DFC0000008000404081004034
:103700004A00002008F501404800002000B00040B9
:1037100004B5004040B100402548244AC0F80823C1
:103720002449031D91F800C00021BCF1000F10D006
:10373000214AC0F84823C3F84015C0F8441100BF1F
:10374000D0F84821002A04BFD0F80401002811D184
:103750000AE0C0F84823C0F84015C0F84011C3F88B
:103760004015C0F84411EBE74FF0E0224FF4006041
:10377000C2F8800211484FF0FF32C0F80823C0F8A9
:103780004015C0F8401100F10402C2F84015C0F81D
:10379000441102F10402C2F84015C0F8481102F1C8
:1037A0000402C2F84015C0F84C117047FDFFFBFF42
:1037B00000B000404A000020FDFFFAFF00800040FA
:1037C00010B507280DD2DFE800F004040404060653
:1037D0000600064902E0001F0549C0B201EB800067
:1037E00010BD40F299316C2000F0E2FB40810040B6
:1037F00040B1004070B51F48002404210470801EB1
:1038000001708905C4608160FFF782FC01254FF0DB
:10381000E02CEB02CCF88031BFF34F8FBFF36F8FFA
:10382000CCF8803214484560856014490A68002A43
:10383000FCD1511EC0F80813C0F84813C0F8404529
:10384000C0F840410E49C1F84045C0F84441091D47
:10385000C1F84045C0F84841C0F80441CCF80031F7
:1038600005604FF48271C0F844130221C0F80413BC
:1038700070BD00004A00002000B0004004B50040C8
:1038800004B00040084890F900000028B8BF704715
:1038900000F01F01012202FA01F14009800000F14D
:1038A000E020C0F80012704754030020034800785D
:1038B00003280CBF012000207047000040030020B7
:1038C000014840887047000040030020034800780A
:1038D000022816BF03280120002070474003002063
:1038E0000248002101704180704700004003002021
:1038F0002DE9F041164C607A002827D04FF48071F2
:103900008D05284608F0BEFC80464FF4827128469B
:1039100008F0B8FC00260746B8F1000F09D00120D6
:10392000C5F80803207920B12671E06908B1804705
:10393000E66137B1C5F804610220C5F8080300F05C
:103940006BFA4046BDE8F04100F058B8BDE8F081A0
:103950005800002010B508F03FFD30B908F05DFDBB
:1039600018B908F090FD002802D002490220086032
:1039700010BD0000340C004070B500F091F900F06B
:103980009FFA094C4FF0804530B1FFF7E3FF01206B
:1039900028610420A07204E00320A0720120C5F871
:1039A00004030020E07170BD5800002070B5124C77
:1039B000A079E0B1E179401E814218DA00F080FA86
:1039C000054600F069FBA179012902D9E179491C7A
:1039D000E1710DB1616900E02169411A022902DA41
:1039E00011F1020F07DC0DB1606100E02061BDE85C
:1039F0007040FFF7C1BF70BD580000202DE9F047AF
:103A000006464FF080454FF48671284608F03AFC90
:103A100080464FF48871284608F034FC274C8246D3
:103A2000277804F1080008F0A1FC10B140F2B911A8
:103A300016E04FF0010946B1A07A032805D1042011
:103A4000A072FFF787FFC5F810900026B8F1000FAD
:103A500018D0C5F80C61A07A042804D040F2CB112C
:103A60006D2000F0A5FA08F0B7FC28B908F0D5FCE5
:103A700010B908F008FD08B1114806600220A072D4
:103A800000F0F2F8BAF1000F08D0C5F81061A07A82
:103A9000022801D1FFF78AFFC5F814903FB12670C4
:103AA000A07A022801D1FFF767FF00F0DDF8BDE83A
:103AB000F0470248083008F070BC000058000020B1
:103AC000340C00402DE9F0475F4C00270646A76103
:103AD000427881780078E0726271A171E7714FF0ED
:103AE00001084FF08045052825D2DFE800F01003DB
:103AF00006202200C4F8188009E000F0D1F8012166
:103B0000284608F0C4FB0028F9D00220A06108F084
:103B1000EAFBB0B100F0EEF9217E01F0030188422A
:103B20000FD1B07950B10220C5F8040370E04748C6
:103B3000ECE74748EAE740F23A314DE000F0AEF9F1
:103B400066E0C5F80C804FF4827AC5F80471A0696C
:103B5000C5F8180508F02CFC40B908F033FC28B96A
:103B600008F047FC10B908F058FC38B14FF080500D
:103B7000D0F844023749C0F34230086008F018FC1E
:103B800040B908F01FFC28B908F033FC10B908F060
:103B900044FC18B12F491031C1F80080C5F80880E5
:103BA0000220C5F80403B07990BBD5F8040310F0E7
:103BB000020F0FD0DFF8A090D9F80010C94341F3ED
:103BC000001101F10108D9F8001041F01001C9F805
:103BD000001007E040F2FB216D2000F0E9F900BF82
:103BE00000F020FB5146284608F04CFB0028F7D097
:103BF00000F054F9B8F1000F05D1D9F8001021F008
:103C00001001C9F800100220C5F80803C5F80471B6
:103C1000A07970B1307860B900F052F9064600F032
:103C20003BFA6FF0004116B1C4E9041001E0C4E9A9
:103C300004010121284608F02AFB08B100F03AF9F6
:103C4000A772BDE8F08700005800002001000200C4
:103C5000010003003C05004010ED00E00148C08970
:103C6000704700005800002010B5EFF3108472B6C2
:103C70000A48417829B14178491E4170417829B1FB
:103C800008E04FF48E716D2000F092F9807808B949
:103C900000F024F9002C00D162B610BD58000020BD
:103CA00010B5EFF3108472B606484178491C417094
:103CB0004078012801D108F001FB002C00D162B648
:103CC00010BD000058000020054810B5C17821B192
:103CD00000210171C170FFF7C7FF002010BD000077
:103CE0005800002070B50C4CE17861B90125E570F1
:103CF000E061FFF7D5FF00F0E3F830B1E06910B103
:103D000080470020E061002070BD4FF080402571A9
:103D1000C0F80453F7E70000580000202DE9F041F7
:103D200005006FF015003FD0297804293CD8002900
:103D300069783BD0002937D1A978002934D10020F7
:103D400008F06BFA002008F05BFA4FF080484FF063
:103D5000FF31C8F808130026C8F80061C8F80461EC
:103D6000C8F80C61C8F81061144C6670A888A0816E
:103D700008F09BFA012708B1E770677001214046FF
:103D800008F085FA08B100F095F840F2F550E081AE
:103D90002846FFF797FE6772002008F031FA4FF0CF
:103DA000E0213046C1F80071BDE8F0810029FBD068
:103DB0002029F9D8A9782129C1D9F5E75800002090
:103DC00001488089704700005800002010B50D4858
:103DD00008F0CCFA0B49083948B1012008704FF0BF
:103DE000E021C1F80002BDE81040FFF759BF887A12
:103DF000022801D1FFF7C0FDBDE81040014808F0DE
:103E0000CCBA0000600000200248807A002800D070
:103E10000120704758000020F8B51F4DE87A0028AF
:103E20000FD1287E00F0030008F04DFA002808D0DA
:103E3000EFF3108172B6FFF7E7FF18B1002900D148
:103E400062B6F8BD0126AE7201B962B618204FF015
:103E50008044C4F80803A6614FF42070ADF8000058
:103E6000BDF80000411EADF80010F9D20027C4F8DB
:103E70000C71C4F810710848083008F08AFA2F70E5
:103E8000FFF77AFD6661687900F07F00C4F83805B5
:103E90001820C4F80403F8BD5800002010B5044CE5
:103EA000207E00F0030008F00EFA0028F8D010BDC4
:103EB0005800002001490120087070475503002078
:103EC0004FF08040D0F8000118B90348007800286E
:103ED00000D0012070470000550300204FF08040C3
:103EE000012141600021C0F80011014801707047B4
:103EF000550300200248006800F0030070470000EE
:103F00001C04004010B531B1012907D040F2023144
:103F100005A000F021F8D0F8140401E0D0F808045E
:103F200000F0010010BD00006E72665F636C6F638D
:103F30006B2E6800BFF34F8F05480168054A01F4F6
:103F4000E06111430160BFF34F8F00BFFDE7000048
:103F50000CED00E00400FA0572B6034A526802B1A3
:103F60009047FFF7E7FF000078000020064810B5F3
:103F70000021016001210160084608F0CBF9BDE88D
:103F80001040012008F0B9B9FC1F0040074810B5E7
:103F900001214160891EC0F808130C2008F0BAF90D
:103FA000BDE810400C2008F0A8B9000000C0004097
:103FB0000EB572B60F4A5568D5B1002203466E465B
:103FC0000A2403E0B0FBF4F0521CD2B20028F9D16D
:103FD000B05409E0B3FBF4F004FB1030B3FBF4F38E
:103FE000521ED2B23030B054002AF3D13046A84726
:103FF000FFF7A0FF780000202DE9F041184C06469D
:10400000174660780D4618B14FF0FF30BDE8F081DB
:10401000FCF7D8FB06B9134E67602570FFF7A6FFC3
:10402000FFF7B4FF3046FFF779FE0600EED1FEF74A
:1040300077FEFFF7F1FE08F030F8284608F05DF94A
:104040000120002D09DB05F01F0100FA01F16A09CA
:10405000920002F1E022C2F8001160703046D5E70C
:104060007800002036C30000014840787047000007
:1040700078000020074890F90000002809DB00F0D4
:104080001F02012191404009800000F1E020C0F8AA
:1040900000127047780000202DE9F04101264FF012
:1040A000E02231034FF000084046C2F88011BFF310
:1040B0004F8FBFF36F8F164CC4F800010C2008F02F
:1040C00048F9144D2868C04340F30017286840F0B1
:1040D00010002860C4F8046326607F1C02E000BF63
:1040E00000F0A0F8D4F800010028F9D01FB9286822
:1040F00020F010002860084805686660C4F808636E
:10410000C4F800810C2008F024F92846BDE8F081AD
:1041100000C0004010ED00E008C5004010B50246A8
:1041200005200C4904E000BF01EBC0031B7933B14B
:10413000401EC0B2F8D248216920FFF739FF41F88C
:10414000302001EBC00100224A718A7101220A71FC
:1041500010BD00008C10002010B5052801D3582197
:1041600006E00A4901EBC0000179012903D0592179
:104170006920FFF71DFF41798279491CC9B28A4243
:1041800000D04171BDE81040FFF774BF8C100020D3
:1041900010B5052803D34F216920FFF709FF034A13
:1041A000002102EBC000017110BD00008C10002046
:1041B00070B505250E4E0F4C16E0217806EBC100B8
:1041C0000279012A08D1427983799A4204D042794E
:1041D000827156F8310080472078401CC0B22070B0
:1041E000052801D3002020706D1EEDB2E5D270BD10
:1041F0008C1000205603002000B508F0D9F840B913
:1042000008F0E0F828B908F0F4F810B908F005F95A
:1042100008B1024800BD024800BD00000C05004086
:1042200000E7014010B508F0F8F830B3EFF3108064
:10423000C8B1002172B6124802680368C2F30012C6
:1042400043F0100303604FF0E023D3F80042D3F8AB
:1042500004321C4300D040BF20BF00BF00BF00BFDE
:1042600000BF12B105E00121E4E7026822F010026C
:104270000260002900D062B610BD20BF10BD000052
:1042800010ED00E001490120887070478000002097
:1042900067C600009FC6000089C6000077C6000000
:1042A00083C6000071C6000065C6000063C600003A
:1042B0009BC600008FC600007DC600006BC60000D4
:1042C0005DC6000055C6000059C600004FC600007C
:1042D0000148006800680047940000200148006819
:1042E0004069004794000020014A1268D2681047D4
:1042F0009400002001490968C96A08479400002019
:10430000014800680069004794000020014A1268D3
:10431000926810479400002001490968496A0847DB
:104320009400002001490968896A08479400002028
:10433000014B1B685B681847940000200148007817
:1043400070470000570300201FB5144C207A8DF8E9
:104350000100E0798DF80000A079ADF804006079E3
:10436000ADF80200684605F073FE08B1902110E038
:10437000E068029002A805F081FE08B1942108E0EF
:1043800007480068039003A80BF05BFD002803D0EA
:104390009821032000F0EAF81FBD0000B4100020AF
:1043A0007446000010B528B11422044908F075F8CD
:1043B000002010BD6FF0150010BD000098460000F1
:1043C00070B56FF02C0390BB244C607808B1981145
:1043D00070BD09B36FF015053AB32148082937D2EB
:1043E000DFE801F03604070A181B1E291178017056
:1043F00023E01178417020E09178B1B1D178A1B17A
:1044000011781B2911D351781B290ED31168C0F8DC
:10441000051012E01168C1600FE0117881700CE0A6
:10442000E17829B11178022902D2284670BD0FE047
:104430001178017401E011884182012208490020AD
:1044400008F049F9B0F5803F04DB6FF00B00EDE7B1
:104450001846EBE70121A170E8E700009800002072
:10446000B410002010B5074C607820B106F0AAF80F
:104470002078FFF78DFE00F085FD00F05FFE002044
:10448000607010BD9800002070B50C46050019D072
:10449000C4B100F027F9C0B12846FFF73FFE0C4D2C
:1044A00000220C492870204608F015F90CF0CCF8D1
:1044B0000021287806F076F8FFF746FF01206870A3
:1044C000002070BD6FF0150070BD4FF0FF3070BD63
:1044D00098000020B410002030B589B005000CD041
:1044E000FFF7C2FD4FF0FF3420B1FFF769FCB0F5D4
:1044F000FA7F05D9204609B030BD6FF01500FAE704
:10450000154C1648656000F00BFA00206070A07032
:10451000E07001462022684608F039F82022104950
:10452000684607F0BAFF202269460E4807F0B5FF3B
:10453000EFF3108472B66FF00C0000F031FD0A4802
:1045400000F008FE18B1AB21032000F00FF804B909
:1045500062B60020CFE70000980000204943000029
:1045600078460000B4100020114700000EB572B666
:10457000154A5568DDB1002203466E460A2403E061
:10458000B0FBF4F0521CD2B20028F9D1B0540AE0CA
:10459000D8B2B0FBF4F7B3FBF4F304FB1700521EE0
:1045A000D2B23030B054002AF2D13046A847BFF31F
:1045B0004F8F06480168064A01F4E061114301602B
:1045C000BFF34F8F00BFFDE7980000200CED00E027
:1045D0000400FA05064810B581784078014302D0FE
:1045E0004FF0FF3010BD05F0FBFF002010BD0000B4
:1045F00098000020064810B581784078014302D029
:104600004FF0FF3010BD05F051FD002010BD00003F
:1046100098000020064810B581784078014302D008
:104620004FF0FF3010BD0BF0D7FD002010BD000093
:1046300098000020064810B581784078014302D0E8
:104640004FF0FF3010BD05F0DDFF002010BD000071
:1046500098000020064810B581784078014302D0C8
:104660004FF0FF3010BD0BF0C7FD002010BD000063
:10467000980000200100000001010100001B1B0345
:10468000020000004C1D000003001F00000000009D
:1046900000000000000000006D90412A38E8AD17CE
:1046A00029A503383927D7851F85D8E1054A10B5D4
:1046B000526812B1BDE81040104792210420FFF764
:1046C00055FF0000D4100020054A10B5926812B1C1
:1046D000BDE81040104798210420FFF747FF000075
:1046E000D41000200548016829B1416819B18068DB
:1046F00008B101207047002070470000D41000204E
:1047000002490DC881E80D0000207047D410002038
:10471000F8B5124C0026256811E00098022802D056
:1047200003280CD106E0206810B10020266005E0C7
:1047300028210CE0206868B101202660A84768465F
:1047400000F0CEFC0028E8D0052805D03521042053
:10475000FFF70CFF2D21FAE7F8BD0000A0000020B4
:104760002DE9FC41294C0546001D04F58277A06027
:10477000387858B1BA783C46791C2846921C07F024
:104780008CFE002020700420BDE8FC811F4801F051
:1047900097FE0646022802D0042E05D026E01B49CB
:1047A000284608F034F821E02078112804D10A21A5
:1047B0003E2007F0FEFF18B12078082805D009E058
:1047C0001249284608F01BFA0AE005213E2007F0AE
:1047D000F0FF68B10D49284608F047F80028C7D017
:1047E000A978287807F0E5FF0028C1D03046CBE74C
:1047F000A088ADF8000001A9684608F033FB002846
:10480000B6D0AA210820FFF7B1FE0000E01000207A
:1048100070B50A7882703AB3012A25D81323037041
:1048200000230AE001EB430400EB4305A678EE7099
:104830006488240A5B1C2C71DBB29342F2D3002300
:104840000BE000BF01EB430500EB43042E796671DA
:10485000AD882D0A5B1CA571DBB29342F2D3012116
:1048600001EB8200C0B270BD002070BD402803D2B1
:10487000401EC1B2054805E0FF2805D04038C1B24E
:104880000248083008F0E5B901207047A400002074
:10489000401EC1B2014808F0DCB90000B40000209D
:1048A000024902680A61406848617047A40000201C
:1048B000054902680A60406842F48C220A60034A93
:1048C0001043486070470000A4000020F807400231
:1048D000024902688A604068C8607047A4000020EE
:1048E00007484FF0FF3100220160C90C416000F120
:1048F00008011F200A604A600831C1E900027047C0
:10490000A400002010B5FFF7EBFF0BF0DEFB044620
:104910000248006800B18047204610BDBC0000205E
:104920000149086070470000BC000020022101809E
:104930004180002101716D21417144F29011C180CB
:1049400001498160002070472A38E8AD10B502287F
:1049500004D34FF401711720FFF708FE0149085CEA
:1049600010BD0000E8120020F8B5050000950DD03C
:104970000026087849780446A14200D90C46AA07C7
:1049800006D040F2CB111720FFF7F0FD0126F0E72B
:10499000124F387079703146684600F0D3F8002124
:1049A0000B460098C01C20F00300009066B907EB8E
:1049B0008102D060002005E0D2F80CC04CF8203015
:1049C000401CC0B2A042F7D30098491C00EB840001
:1049D000C9B200900229E4D3401BF8BDE8120020C0
:1049E00070B50446857900F0E9F80C4AE17902EBEC
:1049F00085020EE0D36853F8213043B1481CE071C2
:104A0000A180D06850F821002060002070BD491CB2
:104A1000C9B28142EED3E171052070BDE8120020D9
:104A2000F0B421B1012902D0F0BC002070470F4A38
:104A300000252B464FF6FF7402EB8106575C0AE017
:104A40005A19D6F80CC092B25CF822C0BCF1000F23
:104A500004D05B1C9BB29F42F2D8224602801046D3
:104A6000A242E1D0F0BC00F035B80000E81200200E
:104A70002DE9F0410646A0F57F400C4643F20207BF
:104A8000FF3820D0022C02D30720BDE8F081304649
:104A900000F048F8050016D00C48294650F82420AC
:104AA000304690470A48002100EB8407F86840F838
:104AB0002610204600F078F802462946786808F06B
:104AC00063FC0020E1E73846DFE70000D44B00003C
:104AD000E812002070B50E46054608F08FFC58B16C
:104AE0000F4800EB8604E06850F8250038B140F22A
:104AF0008B111720FFF73AFD4FF4C571F9E7606895
:104B000000280BD0304600F04FF80146606808F0EE
:104B1000E3FB002802D0E16841F8250070BD0000E9
:104B2000E812002070B50C46054608F067FC002826
:104B300005D0034800EB8400C06850F8250070BD24
:104B4000E81200202DE9F843164E88460546002459
:104B50002868C01C20F003002860204600F024F8DC
:104B6000315D4843B8F1000F01D0002200E02A680F
:104B70000146009232B100274FEA0D0008F0DDFB3C
:104B80001FB106E001270020F8E706EB8401009A38
:104B90004A602968641C0844E4B22860022CD7D318
:104BA000BDE8F883E8120020034931F810004FF601
:104BB000FC71C01C08407047D04B000003490878C6
:104BC0004978884200D2084670470000E812002069
:104BD000E802180129F200009DE500002DE9FF4FD1
:104BE000244C064681B020689A46934658B1017A13
:104BF000B14203D9406850F8260040B143F20200A8
:104C000005B0BDE8F08FA5211820FFF7AFFC1946CD
:104C1000029808F016FC804658460E9908F007FCEA
:104C2000054608EB0500001D87B22068A1463946FD
:104C3000006808F051FB04001AD0678025802946DF
:104C4000201D0E9D07465A460923009508F0BAFA22
:104C50002088414638440A23029ACDF800A008F083
:104C6000B1FAD9F80000406840F826400020C7E7B4
:104C70000420C5E7C000002070B5144C23688BB138
:104C8000197A814212D95A6852F8201071B1002560
:104C900042F820504A88186808F076FB2168002006
:104CA0000A7A0CE0C6211820FFF760FC43F20200EC
:104CB00070BD4B6853F8203033B9401CC0B28242FB
:104CC000F7D8086808F055FB002070BDC000002030
:104CD0002DE9F0410D46040090464FF0000606D045
:104CE0000027A00705D086211820FFF73FFC0127E9
:104CF000F7E7CDB11146002008F01FFB0C3000EBA8
:104D000085068FB90A4F04F10C00AA003C60257299
:104D1000606000EB850020600021606807F037FCD0
:104D20004146386808F009FB3046BDE8F0810000D4
:104D3000C000002070B5084D286800280AD0002463
:104D400004E02046FFF798FF641CE4B22868007A6C
:104D5000A042F6D870BD0000C0000020094910B57F
:104D600002460968002049B10B7A934205D9496887
:104D700051F82210002900D0081D10BDEC21182088
:104D8000FFF7F4FBC00000200A4910B5024609688D
:104D9000002059B10B7A934207D9496851F8221083
:104DA000002902D031F8040B084410BDFA21182064
:104DB000FFF7DCFBC000002070B51E4B45680446C1
:104DC0000022A1B101206070588881085FF00000C6
:104DD00004EB400304EB80061A83198400FB0153A3
:104DE00073602318401C1A750428F1D370BD6270DB
:104DF0005FF0000004EB40010A830A8404EB8001A9
:104E00004A602118401C0A750428F3D35888B0F56D
:104E1000FF7F01D2460800E0FF2608F086FB6560B0
:104E200020842918A1606684E560A0842161E6845D
:104E300070BD0000C40000202DE9F04158B10025EC
:104E40001144244ECCB200273470810705D04E2186
:104E50000920FFF78BFB0125F2E71F2B04D84FF643
:104E6000FF7101EA830109E05900FF2B0CD903F11E
:104E7000FF02B2EB430F00D2114689B24FF6FC722B
:104E8000C91C114035B107E07C22B2EB430FF4D3CB
:104E90007C21F2E77060718004EB840207EBC203AF
:104EA000002276684FF0010C0DE04DB902EB82074D
:104EB00000EB030E06F837C006EBC707C7F804E09F
:104EC000521C0B44D2B2A242EFD3DB1D23F00700E9
:104ED000BDE8F081C400002070B5104A0020516880
:104EE000127814E000EB800311F833306BB100EB63
:104EF000800011EBC0040CD00025A57001212046D4
:104F0000FFF75AFF2570204670BD401CC0B290428A
:104F1000E8D3A9210920FFF729FB0000C4000020E5
:104F2000044810B54088840808F0FFFA844200D392
:104F3000204610BDC400002030B50D490120486056
:104F4000821EC1F808230B4988600023C1F8003293
:104F5000C1F80823084C2360251D28608860C1F82B
:104F600008232360286006490448086030BD00001B
:104F700000E0004000F0004000F500400000F63F77
:104F800008F5014010B5FFF7D7FF08F0A1FB034972
:104F90000148086010BD00000000F63F08F5014020
:104FA00010B50446FFF7C8FF08F092FB00F088F840
:104FB000054904480860204600F0B8F8BDE81040F4
:104FC00000F0DCB80000F63F08F501402DE9F84F8D
:104FD0008246384807F0CAF9DFF8D8B028B1012670
:104FE0000BF10100FF21017000E000264FF48075F5
:104FF000314C4FF000082F1D01216160C4F8008181
:10500000C4F80481C4F804A52160DFF8B0901CE066
:10501000D9F80000C00618D50E2008F068FBEFF3A1
:105020001080009072B603212046C4F8041329466C
:1050300008F06AFB30B93946204608F065FB08B92C
:10504000FFF7F0F8009800B962B62946204608F04C
:105050005BFB28B93946204608F056FB0028D7D01C
:105060003946204608F050FB0028C5D106BB9BF806
:1050700001108DF80010009900919DF8001009B101
:10508000012500E000250BF1010080F800800320DD
:10509000C4F80803C4F80481C4F800810E2008F0A5
:1050A00026FB044807F079F915B11120BDE8F88F07
:1050B0000020FBE75803002000E0004010ED00E076
:1050C00010B5064807F065F918B127211D20FFF734
:1050D0004DFA02480021417010BD00005803002025
:1050E00070B511490A68EAB100231D4601244A68D7
:1050F000521C4A60092A00D34D600E7904FA06F268
:105100000E6816420BD0EFF3108372B60C6894430E
:105110000C6003B962B649680160002070BD5B1C79
:10512000092BE4D3052070BDCC00002002480021EB
:105130000160416070470000CC00002010B5044CB5
:105140002078FF2803D0FFF723F8FF20207010BD40
:105150000000002010B5084C617809B10F2010BD87
:10516000FEF7DCFF2070FF2801D0002010BD782161
:105170001F20FFF7FBF9000000000020014900207C
:1051800048707047000000200648074A818C52880A
:10519000914204D190F8220008B10020704701200C
:1051A0007047000098130020440300200149488004
:1051B00070470000440300200848094A818C528847
:1051C000914209D14FF6FF71818410F8221F19B165
:1051D00000210170012070470020704798130020C3
:1051E00044030020074810F8221F012907D001219D
:1051F0000170054803490088888401207047002019
:105200007047000098130020440300200649074B14
:105210008A8C5B889A4205D191F8222012B10160F4
:10522000012070470020704798130020440300209D
:1052300009498A8CA2F57F43FF3B02D0002101601F
:1052400007E091F822200449012A02D001600120E0
:105250007047002070470000981300200149088023
:1052600070470000440300200549002081F8220017
:105270004FF6FF708884034908804880704700001B
:10528000981300204403002005498A8C824205D1EE
:10529000002081F822004FF6FF70888470470000DC
:1052A000981300200A4A10B1012807D00EE0507868
:1052B00060B1D2F802000860D08804E0107828B10C
:1052C00090680860908988800120704700207047AE
:1052D0005A030020084A012338B1012804D1137071
:1052E0000868906088889081704753700868C2F899
:1052F00002008888D08070475A030020064910B108
:10530000012802D005E0487800E0087808B10120C3
:1053100070470020704700005A03002001490877B9
:1053200070470000220C00200148C0787047000040
:10533000D40000200148007970470000D40000200C
:1053400010B5044600F044F918B1C5212720FFF735
:105350000DF90348012108F0FCFD0248C46210BDAC
:10536000000C0020D4000020014901208871704702
:10537000D40000202DE9F0415D4C069D2678002EDA
:105380006AD1002A68D0002B66D0002D64D0C4E911
:105390000E0104F11406002086E82C00A071607153
:1053A000E070A0702071A081E08100F055F9064600
:1053B00000F04CF9054605F087FD05F0DFFA95F998
:1053C0006E0005F005FEE86905F0D8FE686905F095
:1053D000CBFE96F82B0005F001FF04F13800406881
:1053E00090F80C0208B105F0EFFC95F86B10012065
:1053F00005F02EFC002874D03E4805F095FC288866
:10540000FFF7C2FC20632888FFF7A8FC606306F161
:1054100080008036384996E88C1001F10808803EFB
:1054200088E88C100269C1F821204069C1F8250084
:1054300000F072F90146288F08F0EDFAA98E81423A
:1054400000D208462072A04695F86B10E88FF77ED0
:10545000AC8F082904D102E040F21D1145E004217F
:1054600008F0D9FA0FB9001D80B2844200D220465C
:10547000C4B288F80940F17E002901D04FF0040140
:10548000214488F8071014D01B484FF0010700F1A1
:1054900008000776D6E91E12C0E9041295F86B00E1
:1054A00008F0BEF91449034622460831384605F093
:1054B000D1F9012000F088FB10480068032812D0C1
:1054C0000B2810D00C480E220021523007F05FF854
:1054D0000948B189523041802988018096F82B1003
:1054E0000171BDE8F0814FF4EC712720FFF73EF821
:1054F000D4000020C85D0000D00B002050150040F3
:105500002DE9FC478A46064600F0A6F82B4D0446D6
:105510004FF00008686A47780EB1012E01D185F876
:10552000018068784FF0010950B1012821D002288C
:105530002BD003283AD040F21D412720FFF716F860
:10554000012E28D000F0D4F8694601AA686B07F054
:10555000B6FD009807F069FDCAF80000394601223F
:10556000686B0DE084F81080BDE8FC8784F810902B
:10557000FAE7012E0FD000F0BBF839460022686B25
:1055800007F00AFD022E06D1EEE7012E03D0686B6C
:1055900007F09EFEF6E7D4E91E01401C41F1000130
:1055A000C4E91E01207C0128E0D1DBE7012EDBD01D
:1055B000686BBDE8FC4707F08BBE0000D4000020FC
:1055C0000248C089C0F3802070470000D40000204A
:1055D0000448007808B10C20704703490020087780
:1055E00070470000D4000020220C00200C4810B5A9
:1055F000017849B100F138010078022808D04FF451
:10560000FA712720FEF7B2FFBDE8104000F0F8B9AC
:105610004868D0F82002BDE8104005F08DBB0000BE
:10562000D40000200846002141701C2100F8041B12
:105630000E22014906F031BF300C0020024A938946
:105640000343938152691047D40000200148406809
:10565000704700000C01002001484068803070470E
:105660000C010020014A002152691047D40000209B
:1056700070B50546012918D8124CA1698847A0B118
:10568000607990B9E5B904F110000178C80605D435
:10569000E06A0078C00601D4012000E00020A26A80
:1056A0002AB962891AB1C90601D4012070BDA18945
:1056B0008A0703D5226AD278022A01D00843F4D19E
:1056C000002070BDD400002030B5084BDD881C8957
:1056D0002AB108B905B914B15889401C588111B1D3
:1056E0006D1CDD8030BD641C1C8130BD220C00208F
:1056F00010B5084CA06A38B16289616AD21C06F004
:10570000CCFEA06A606210BD40F263412720FEF724
:105710002DFF0000D400002010B5FFF797FF0446CE
:10572000FFF79AFF0246417D1648262910D0272907
:105730000ED0927D262A0BD021290DD022290BD004
:10574000242A0FD094F86A00042800D1082010BD44
:10575000406890F8BE120EE0242A03D0406890F80A
:10576000360105E0416891F8360191F86310084070
:1057700008F04CF8014694F86A00BDE8104008F0C3
:105780005DB800000C0100202DE9FE4F8B46074656
:10579000FFF762FF4FF00009694C06468DF8049050
:1057A000CDF80890CDF8009020784D46022804D01E
:1057B00040F2EE412720FEF7D9FEA07B400606D43A
:1057C0004020FFF74FFFE08940F04000E081F07E8D
:1057D000DFB380B105F00CF905F0E6F858B9606A5E
:1057E000417841B10078317CC0F3C000884202D1D9
:1057F0000120A070A0E0606A4178618121B1606BF6
:1058000007F033FDA06200E0A562E08940F48070FB
:10581000E081606AF17B0078C0F38000884207D0A5
:1058200002A800F083F9E08940F48060E08101E0A3
:105830004FF00109606A317C0078C0F3C0008842F3
:105840000ED101A800F034F90AE0FFE708B105F035
:10585000C9F8E078401CE070E08940F40070E08115
:10586000DFF8DCA0B07E0AF1380A88B1FFF7EEFE5F
:1058700034490D76D6E91C23C1E9042390F86A0067
:1058800007F0CEFF0346FB222E49284604F0E2FF34
:105890004FF00008BBF1000F04D1E1780120FFF7C1
:1058A000E7FEB0B105F04CFC9DF8040018B1694664
:1058B0000020FFF725FEB0894A463946FFF704FF6E
:1058C00027B11F48E570383008F0BFFD4FF00108E0
:1058D0001BE09DF8040018B169460120FFF710FE97
:1058E000002000F0ADF99DF8040018B169460220CF
:1058F000FFF706FEB0894A463946FFF7E5FE27B1B5
:105900000F48E570383008F0A0FD029840B107F06C
:105910008CFBDAF80410401C05720D2200F098FD93
:10592000009830B1DAF8041005722722009800F0D0
:105930008FFDB8F1000F01D000F062F8BDE8FE8FD6
:10594000D4000020D80B00202DE9F0410F468046FE
:10595000FFF782FE284D04462878012804D040F243
:1059600072412720FEF702FE217A0020012629B18C
:10597000207200210420FFF761FEA672296A0878D0
:10598000C043800709D1A07B78BB0220FFF756FEF9
:10599000286A0078C043800727D0286A407810B171
:1059A0000220A07300E0A673E07E90B1FFF74EFEE8
:1059B00012496D7A0E76D4E91E23C1E9042390F8CA
:1059C0006B0007F02DFF03462A460C49304604F0D1
:1059D00041FF37EA080704D000210846FFF748FED8
:1059E00028B1BDE8F04100F00BB80320D9E7BDE8CD
:1059F000F041002000F0E8B8D4000020D80B0020CF
:105A000010B505F09BF804F0B9FF0D4CE089FFF7E5
:105A100029FE0C48007F58B10A490E2201F10E0000
:105A200006F03BFD0748212207491D3000F010FD1C
:105A3000E2696179A07890470020207010BD0000D5
:105A4000D4000020220C002025560000084810B584
:105A50000078022804D040F21E212720FEF786FDA0
:105A6000044901200873BDE81040FFF7C9BF0000DA
:105A7000D4000020220C00200C4B30B4DB793AB962
:105A8000FF2B05D190F86B2090F86A40A2420AD013
:105A900029B190F86B1030BC184605F075BBFF2398
:105AA00090F86A10F7E730BC70470000D40000207F
:105AB00070B50646FFF7D0FD1B4A04460125516A22
:105AC000087800F0030001280CD002280AD003282F
:105AD00021D12572D08940F40060D0810120FFF7E8
